{
  "_format": "hh-sol-artifact-1",
  "contractName": "Forms",
  "sourceName": "contracts/Forms.sol",
  "abi": [
    {
      "anonymous": false,
      "inputs": [
        {
          "indexed": false,
          "internalType": "address",
          "name": "from",
          "type": "address"
        },
        {
          "indexed": false,
          "internalType": "address payable",
          "name": "to",
          "type": "address"
        },
        {
          "indexed": false,
          "internalType": "string[]",
          "name": "id",
          "type": "string[]"
        },
        {
          "indexed": false,
          "internalType": "string",
          "name": "namedConstant",
          "type": "string"
        }
      ],
      "name": "sendMoney",
      "type": "event"
    },
    {
      "inputs": [
        {
          "internalType": "uint256",
          "name": "inputNumber",
          "type": "uint256"
        }
      ],
      "name": "getTokens",
      "outputs": [
        {
          "internalType": "string",
          "name": "",
          "type": "string"
        },
        {
          "internalType": "string[]",
          "name": "",
          "type": "string[]"
        },
        {
          "internalType": "address payable",
          "name": "",
          "type": "address"
        },
        {
          "internalType": "address",
          "name": "",
          "type": "address"
        }
      ],
      "stateMutability": "view",
      "type": "function"
    },
    {
      "inputs": [
        {
          "internalType": "address",
          "name": "from",
          "type": "address"
        },
        {
          "internalType": "address payable",
          "name": "to",
          "type": "address"
        },
        {
          "internalType": "string[]",
          "name": "id",
          "type": "string[]"
        },
        {
          "internalType": "string",
          "name": "namedConstant",
          "type": "string"
        }
      ],
      "name": "setForms",
      "outputs": [
        {
          "internalType": "string[]",
          "name": "",
          "type": "string[]"
        }
      ],
      "stateMutability": "nonpayable",
      "type": "function"
    },
    {
      "inputs": [],
      "name": "tokenNumber",
      "outputs": [
        {
          "internalType": "uint256",
          "name": "",
          "type": "uint256"
        }
      ],
      "stateMutability": "view",
      "type": "function"
    }
  ],
  "bytecode": "0x608060405234801561001057600080fd5b50610cee806100206000396000f3fe608060405234801561001057600080fd5b50600436106100415760003560e01c80637d8d119c14610046578063d3c9cc2614610076578063f282a8e1146100a9575b600080fd5b610060600480360381019061005b91906106c1565b6100c7565b60405161006d9190610908565b60405180910390f35b610090600480360381019061008b9190610760565b6101f9565b6040516100a0949392919061092a565b60405180910390f35b6100b16103e9565b6040516100be919061097d565b60405180910390f35b60607f48ce586808b14be6a5b9d618b81cd9ef01701daaf34728dc9323dd3f5d5a3749858585856040516100fe94939291906108b5565b60405180910390a160008081548092919061011890610b73565b91905055506000600160008054815260200190815260200160002090508281600301908051906020019061014d9291906103ef565b5083816002019080519060200190610166929190610475565b50848160010160006101000a81548173ffffffffffffffffffffffffffffffffffffffff021916908373ffffffffffffffffffffffffffffffffffffffff160217905550858160000160006101000a81548173ffffffffffffffffffffffffffffffffffffffff021916908373ffffffffffffffffffffffffffffffffffffffff16021790555083915050949350505050565b6060806000806000600160008781526020019081526020016000209050600081600301805461022790610b10565b80601f016020809104026020016040519081016040528092919081815260200182805461025390610b10565b80156102a05780601f10610275576101008083540402835291602001916102a0565b820191906000526020600020905b81548152906001019060200180831161028357829003601f168201915b50505050509050600082600201805480602002602001604051908101604052809291908181526020016000905b828210156103795783829060005260206000200180546102ec90610b10565b80601f016020809104026020016040519081016040528092919081815260200182805461031890610b10565b80156103655780601f1061033a57610100808354040283529160200191610365565b820191906000526020600020905b81548152906001019060200180831161034857829003601f168201915b5050505050815260200190600101906102cd565b50505050905060008360010160009054906101000a900473ffffffffffffffffffffffffffffffffffffffff16905060008460000160009054906101000a900473ffffffffffffffffffffffffffffffffffffffff16905083838383985098509850985050505050509193509193565b60005481565b8280546103fb90610b10565b90600052602060002090601f01602090048101928261041d5760008555610464565b82601f1061043657805160ff1916838001178555610464565b82800160010185558215610464579182015b82811115610463578251825591602001919060010190610448565b5b50905061047191906104d5565b5090565b8280548282559060005260206000209081019282156104c4579160200282015b828111156104c35782518290805190602001906104b39291906103ef565b5091602001919060010190610495565b5b5090506104d191906104f2565b5090565b5b808211156104ee5760008160009055506001016104d6565b5090565b5b8082111561051257600081816105099190610516565b506001016104f3565b5090565b50805461052290610b10565b6000825580601f106105345750610553565b601f01602090049060005260206000209081019061055291906104d5565b5b50565b6000610569610564846109bd565b610998565b9050808382526020820190508285602086028201111561058c5761058b610c4e565b5b60005b858110156105da57813567ffffffffffffffff8111156105b2576105b1610c49565b5b8086016105bf898261067e565b8552602085019450602084019350505060018101905061058f565b5050509392505050565b60006105f76105f2846109e9565b610998565b90508281526020810184848401111561061357610612610c53565b5b61061e848285610ace565b509392505050565b60008135905061063581610c73565b92915050565b60008135905061064a81610c8a565b92915050565b600082601f83011261066557610664610c49565b5b8135610675848260208601610556565b91505092915050565b600082601f83011261069357610692610c49565b5b81356106a38482602086016105e4565b91505092915050565b6000813590506106bb81610ca1565b92915050565b600080600080608085870312156106db576106da610c5d565b5b60006106e987828801610626565b94505060206106fa8782880161063b565b935050604085013567ffffffffffffffff81111561071b5761071a610c58565b5b61072787828801610650565b925050606085013567ffffffffffffffff81111561074857610747610c58565b5b6107548782880161067e565b91505092959194509250565b60006020828403121561077657610775610c5d565b5b6000610784848285016106ac565b91505092915050565b60006107998383610834565b905092915050565b6107aa81610a92565b82525050565b6107b981610a80565b82525050565b60006107ca82610a2a565b6107d48185610a4d565b9350836020820285016107e685610a1a565b8060005b858110156108225784840389528151610803858261078d565b945061080e83610a40565b925060208a019950506001810190506107ea565b50829750879550505050505092915050565b600061083f82610a35565b6108498185610a5e565b9350610859818560208601610add565b61086281610c62565b840191505092915050565b600061087882610a35565b6108828185610a6f565b9350610892818560208601610add565b61089b81610c62565b840191505092915050565b6108af81610ac4565b82525050565b60006080820190506108ca60008301876107b0565b6108d760208301866107a1565b81810360408301526108e981856107bf565b905081810360608301526108fd818461086d565b905095945050505050565b6000602082019050818103600083015261092281846107bf565b905092915050565b60006080820190508181036000830152610944818761086d565b9050818103602083015261095881866107bf565b905061096760408301856107a1565b61097460608301846107b0565b95945050505050565b600060208201905061099260008301846108a6565b92915050565b60006109a26109b3565b90506109ae8282610b42565b919050565b6000604051905090565b600067ffffffffffffffff8211156109d8576109d7610c1a565b5b602082029050602081019050919050565b600067ffffffffffffffff821115610a0457610a03610c1a565b5b610a0d82610c62565b9050602081019050919050565b6000819050602082019050919050565b600081519050919050565b600081519050919050565b6000602082019050919050565b600082825260208201905092915050565b600082825260208201905092915050565b600082825260208201905092915050565b6000610a8b82610aa4565b9050919050565b6000610a9d82610aa4565b9050919050565b600073ffffffffffffffffffffffffffffffffffffffff82169050919050565b6000819050919050565b82818337600083830152505050565b60005b83811015610afb578082015181840152602081019050610ae0565b83811115610b0a576000848401525b50505050565b60006002820490506001821680610b2857607f821691505b60208210811415610b3c57610b3b610beb565b5b50919050565b610b4b82610c62565b810181811067ffffffffffffffff82111715610b6a57610b69610c1a565b5b80604052505050565b6000610b7e82610ac4565b91507fffffffffffffffffffffffffffffffffffffffffffffffffffffffffffffffff821415610bb157610bb0610bbc565b5b600182019050919050565b7f4e487b7100000000000000000000000000000000000000000000000000000000600052601160045260246000fd5b7f4e487b7100000000000000000000000000000000000000000000000000000000600052602260045260246000fd5b7f4e487b7100000000000000000000000000000000000000000000000000000000600052604160045260246000fd5b600080fd5b600080fd5b600080fd5b600080fd5b600080fd5b6000601f19601f8301169050919050565b610c7c81610a80565b8114610c8757600080fd5b50565b610c9381610a92565b8114610c9e57600080fd5b50565b610caa81610ac4565b8114610cb557600080fd5b5056fea2646970667358221220303dd126ef95f557406a9a0c219d27941d7e35c762897948e4411ff5c660755564736f6c63430008070033",
  "linkReferences": {},
  "deployedLinkReferences": {}
}